{
  "contractName": "FileStorage",
  "abi": [
    {
      "anonymous": false,
      "inputs": [
        {
          "indexed": true,
          "internalType": "string",
          "name": "ipfsHash",
          "type": "string"
        },
        {
          "indexed": true,
          "internalType": "address",
          "name": "sender",
          "type": "address"
        },
        {
          "indexed": true,
          "internalType": "address",
          "name": "receiver",
          "type": "address"
        }
      ],
      "name": "AccessGranted",
      "type": "event"
    },
    {
      "anonymous": false,
      "inputs": [
        {
          "indexed": true,
          "internalType": "string",
          "name": "ipfsHash",
          "type": "string"
        },
        {
          "indexed": true,
          "internalType": "address",
          "name": "owner",
          "type": "address"
        }
      ],
      "name": "FileUploaded",
      "type": "event"
    },
    {
      "inputs": [
        {
          "internalType": "string",
          "name": "",
          "type": "string"
        },
        {
          "internalType": "address",
          "name": "",
          "type": "address"
        }
      ],
      "name": "accessList",
      "outputs": [
        {
          "internalType": "bool",
          "name": "",
          "type": "bool"
        }
      ],
      "stateMutability": "view",
      "type": "function",
      "constant": true
    },
    {
      "inputs": [
        {
          "internalType": "string",
          "name": "",
          "type": "string"
        }
      ],
      "name": "files",
      "outputs": [
        {
          "internalType": "string",
          "name": "ipfsHash",
          "type": "string"
        },
        {
          "internalType": "address",
          "name": "owner",
          "type": "address"
        }
      ],
      "stateMutability": "view",
      "type": "function",
      "constant": true
    },
    {
      "inputs": [
        {
          "internalType": "address",
          "name": "",
          "type": "address"
        },
        {
          "internalType": "uint256",
          "name": "",
          "type": "uint256"
        }
      ],
      "name": "userFiles",
      "outputs": [
        {
          "internalType": "string",
          "name": "",
          "type": "string"
        }
      ],
      "stateMutability": "view",
      "type": "function",
      "constant": true
    },
    {
      "inputs": [
        {
          "internalType": "string",
          "name": "ipfsHash",
          "type": "string"
        }
      ],
      "name": "uploadFile",
      "outputs": [],
      "stateMutability": "nonpayable",
      "type": "function"
    },
    {
      "inputs": [
        {
          "internalType": "string",
          "name": "ipfsHash",
          "type": "string"
        },
        {
          "internalType": "address",
          "name": "receiver",
          "type": "address"
        }
      ],
      "name": "grantAccess",
      "outputs": [],
      "stateMutability": "nonpayable",
      "type": "function"
    },
    {
      "inputs": [
        {
          "internalType": "string",
          "name": "ipfsHash",
          "type": "string"
        },
        {
          "internalType": "address",
          "name": "user",
          "type": "address"
        }
      ],
      "name": "hasAccess",
      "outputs": [
        {
          "internalType": "bool",
          "name": "",
          "type": "bool"
        }
      ],
      "stateMutability": "view",
      "type": "function",
      "constant": true
    },
    {
      "inputs": [
        {
          "internalType": "address",
          "name": "user",
          "type": "address"
        }
      ],
      "name": "getFilesByUser",
      "outputs": [
        {
          "internalType": "string[]",
          "name": "",
          "type": "string[]"
        }
      ],
      "stateMutability": "view",
      "type": "function",
      "constant": true
    }
  ],
  "bytecode": "0x608060405234801561001057600080fd5b50610fb6806100206000396000f3fe608060405234801561001057600080fd5b506004361061007d5760003560e01c8063718f38a61161005b578063718f38a614610112578063e37ffc3014610142578063e77557611461015e578063f37c215e1461018f5761007d565b806313bd20e214610082578063300332d3146100b257806350ef15e6146100e2575b600080fd5b61009c60048036038101906100979190610a51565b6101ab565b6040516100a99190610ca8565b60405180910390f35b6100cc60048036038101906100c791906109ab565b61021e565b6040516100d99190610c86565b60405180910390f35b6100fc60048036038101906100f79190610a51565b610336565b6040516101099190610ca8565b60405180910390f35b61012c600480360381019061012791906109d4565b61037b565b6040516101399190610cc3565b60405180910390f35b61015c60048036038101906101579190610a10565b610434565b005b61017860048036038101906101739190610a10565b6105fd565b604051610186929190610ce5565b60405180910390f35b6101a960048036038101906101a49190610a51565b6106df565b005b60006002836040516101bd9190610c6f565b908152602001604051809103902060008373ffffffffffffffffffffffffffffffffffffffff1673ffffffffffffffffffffffffffffffffffffffff16815260200190815260200160002060009054906101000a900460ff16905092915050565b6060600160008373ffffffffffffffffffffffffffffffffffffffff1673ffffffffffffffffffffffffffffffffffffffff168152602001908152602001600020805480602002602001604051908101604052809291908181526020016000905b8282101561032b57838290600052602060002001805461029e90610eb1565b80601f01602080910402602001604051908101604052809291908181526020018280546102ca90610eb1565b80156103175780601f106102ec57610100808354040283529160200191610317565b820191906000526020600020905b8154815290600101906020018083116102fa57829003601f168201915b50505050508152602001906001019061027f565b505050509050919050565b6002828051602081018201805184825260208301602085012081835280955050505050506020528060005260406000206000915091509054906101000a900460ff1681565b6001602052816000526040600020818154811061039757600080fd5b906000526020600020016000915091505080546103b390610eb1565b80601f01602080910402602001604051908101604052809291908181526020018280546103df90610eb1565b801561042c5780601f106104015761010080835404028352916020019161042c565b820191906000526020600020905b81548152906001019060200180831161040f57829003601f168201915b505050505081565b6000815111610478576040517f08c379a000000000000000000000000000000000000000000000000000000000815260040161046f90610d15565b60405180910390fd5b60405180604001604052808281526020013373ffffffffffffffffffffffffffffffffffffffff168152506000826040516104b39190610c6f565b908152602001604051809103902060008201518160000190805190602001906104dd929190610876565b5060208201518160010160006101000a81548173ffffffffffffffffffffffffffffffffffffffff021916908373ffffffffffffffffffffffffffffffffffffffff160217905550905050600160003373ffffffffffffffffffffffffffffffffffffffff1673ffffffffffffffffffffffffffffffffffffffff168152602001908152602001600020819080600181540180825580915050600190039060005260206000200160009091909190915090805190602001906105a0929190610876565b503373ffffffffffffffffffffffffffffffffffffffff16816040516105c69190610c6f565b60405180910390207f430921b453a6efbad0a7ee7b807d8698bfa8f6991266115e4a6e437b6a2960a260405160405180910390a350565b60008180516020810182018051848252602083016020850120818352809550505050505060009150905080600001805461063690610eb1565b80601f016020809104026020016040519081016040528092919081815260200182805461066290610eb1565b80156106af5780601f10610684576101008083540402835291602001916106af565b820191906000526020600020905b81548152906001019060200180831161069257829003601f168201915b5050505050908060010160009054906101000a900473ffffffffffffffffffffffffffffffffffffffff16905082565b3373ffffffffffffffffffffffffffffffffffffffff166000836040516107069190610c6f565b908152602001604051809103902060010160009054906101000a900473ffffffffffffffffffffffffffffffffffffffff1673ffffffffffffffffffffffffffffffffffffffff161461078e576040517f08c379a000000000000000000000000000000000000000000000000000000000815260040161078590610d35565b60405180910390fd5b60016002836040516107a09190610c6f565b908152602001604051809103902060008373ffffffffffffffffffffffffffffffffffffffff1673ffffffffffffffffffffffffffffffffffffffff16815260200190815260200160002060006101000a81548160ff0219169083151502179055508073ffffffffffffffffffffffffffffffffffffffff163373ffffffffffffffffffffffffffffffffffffffff168360405161083e9190610c6f565b60405180910390207ffbc6d0108d2bcc402dccd9e59a550c2ec2c25fde70262696fe3d257d59c9cf1860405160405180910390a45050565b82805461088290610eb1565b90600052602060002090601f0160209004810192826108a457600085556108eb565b82601f106108bd57805160ff19168380011785556108eb565b828001600101855582156108eb579182015b828111156108ea5782518255916020019190600101906108cf565b5b5090506108f891906108fc565b5090565b5b808211156109155760008160009055506001016108fd565b5090565b600061092c61092784610d86565b610d55565b90508281526020810184848401111561094457600080fd5b61094f848285610e6f565b509392505050565b60008135905061096681610f52565b92915050565b600082601f83011261097d57600080fd5b813561098d848260208601610919565b91505092915050565b6000813590506109a581610f69565b92915050565b6000602082840312156109bd57600080fd5b60006109cb84828501610957565b91505092915050565b600080604083850312156109e757600080fd5b60006109f585828601610957565b9250506020610a0685828601610996565b9150509250929050565b600060208284031215610a2257600080fd5b600082013567ffffffffffffffff811115610a3c57600080fd5b610a488482850161096c565b91505092915050565b60008060408385031215610a6457600080fd5b600083013567ffffffffffffffff811115610a7e57600080fd5b610a8a8582860161096c565b9250506020610a9b85828601610957565b9150509250929050565b6000610ab18383610b4c565b905092915050565b610ac281610e27565b82525050565b6000610ad382610dc6565b610add8185610de9565b935083602082028501610aef85610db6565b8060005b85811015610b2b5784840389528151610b0c8582610aa5565b9450610b1783610ddc565b925060208a01995050600181019050610af3565b50829750879550505050505092915050565b610b4681610e39565b82525050565b6000610b5782610dd1565b610b618185610dfa565b9350610b71818560208601610e7e565b610b7a81610f41565b840191505092915050565b6000610b9082610dd1565b610b9a8185610e0b565b9350610baa818560208601610e7e565b610bb381610f41565b840191505092915050565b6000610bc982610dd1565b610bd38185610e1c565b9350610be3818560208601610e7e565b80840191505092915050565b6000610bfc601183610e0b565b91507f496e76616c6964204950465320686173680000000000000000000000000000006000830152602082019050919050565b6000610c3c601f83610e0b565b91507f4f6e6c7920746865206f776e65722063616e206772616e7420616363657373006000830152602082019050919050565b6000610c7b8284610bbe565b915081905092915050565b60006020820190508181036000830152610ca08184610ac8565b905092915050565b6000602082019050610cbd6000830184610b3d565b92915050565b60006020820190508181036000830152610cdd8184610b85565b905092915050565b60006040820190508181036000830152610cff8185610b85565b9050610d0e6020830184610ab9565b9392505050565b60006020820190508181036000830152610d2e81610bef565b9050919050565b60006020820190508181036000830152610d4e81610c2f565b9050919050565b6000604051905081810181811067ffffffffffffffff82111715610d7c57610d7b610f12565b5b8060405250919050565b600067ffffffffffffffff821115610da157610da0610f12565b5b601f19601f8301169050602081019050919050565b6000819050602082019050919050565b600081519050919050565b600081519050919050565b6000602082019050919050565b600082825260208201905092915050565b600082825260208201905092915050565b600082825260208201905092915050565b600081905092915050565b6000610e3282610e45565b9050919050565b60008115159050919050565b600073ffffffffffffffffffffffffffffffffffffffff82169050919050565b6000819050919050565b82818337600083830152505050565b60005b83811015610e9c578082015181840152602081019050610e81565b83811115610eab576000848401525b50505050565b60006002820490506001821680610ec957607f821691505b60208210811415610edd57610edc610ee3565b5b50919050565b7f4e487b7100000000000000000000000000000000000000000000000000000000600052602260045260246000fd5b7f4e487b7100000000000000000000000000000000000000000000000000000000600052604160045260246000fd5b6000601f19601f8301169050919050565b610f5b81610e27565b8114610f6657600080fd5b50565b610f7281610e65565b8114610f7d57600080fd5b5056fea26469706673582212203f5d4c9e96f353d180f4dc4a5fde1c7fe192b86b3dfe3bc69e1baa8746df05e864736f6c63430008000033",
  "immutableReferences": {},
  "source": "// SPDX-License-Identifier: MIT\r\npragma solidity ^0.8.0;\r\n\r\ncontract FileStorage {\r\n    struct File {\r\n        string ipfsHash;\r\n        address owner;\r\n    }\r\n\r\n    // Mapping from file hash to file details\r\n    mapping(string => File) public files;\r\n\r\n    // Mapping from user address to their uploaded file hashes\r\n    mapping(address => string[]) public userFiles;\r\n\r\n    // Access control mapping\r\n    mapping(string => mapping(address => bool)) public accessList;\r\n\r\n    event FileUploaded(string indexed ipfsHash, address indexed owner);\r\n    event AccessGranted(string indexed ipfsHash, address indexed sender, address indexed receiver);\r\n\r\n    // Upload a file and associate it with the uploader's address\r\n    function uploadFile(string memory ipfsHash) public {\r\n        require(bytes(ipfsHash).length > 0, \"Invalid IPFS hash\");\r\n        files[ipfsHash] = File(ipfsHash, msg.sender);\r\n        userFiles[msg.sender].push(ipfsHash); // Associate file with the uploader\r\n        emit FileUploaded(ipfsHash, msg.sender);\r\n    }\r\n\r\n    // Grant access to another user\r\n    function grantAccess(string memory ipfsHash, address receiver) public {\r\n        require(files[ipfsHash].owner == msg.sender, \"Only the owner can grant access\");\r\n        accessList[ipfsHash][receiver] = true;\r\n        emit AccessGranted(ipfsHash, msg.sender, receiver);\r\n    }\r\n\r\n    // Check if a user has access to a file\r\n    function hasAccess(string memory ipfsHash, address user) public view returns (bool) {\r\n        return accessList[ipfsHash][user];\r\n    }\r\n\r\n    // Get all file hashes uploaded by a specific user\r\n    function getFilesByUser(address user) public view returns (string[] memory) {\r\n        return userFiles[user];\r\n    }\r\n}",
  "sourcePath": "C:\\Users\\prith\\Desktop\\deepseek\\blockchain-file-storage\\contracts\\FileStorage.sol",
  "compiler": {
    "name": "solc",
    "version": "0.8.0+commit.c7dfd78e.Emscripten.clang"
  },
  "schemaVersion": "3.4.16",
  "updatedAt": "2025-01-31T04:22:11.636Z",
  "networkType": "ethereum",
  "devdoc": {
    "kind": "dev",
    "methods": {},
    "version": 1
  },
  "userdoc": {
    "kind": "user",
    "methods": {},
    "version": 1
  }
}